:020000040000FA
:100000001D28FC30AA000030A8000034031383121E
:100010008501860103138316FF30850000308600BA
:1000200003138312860100340B118B138B12810191
:100030006400C830810000340800031383120620D6
:1000400001201C2005195920A520DB208614061448
:100050009A20DB20861006109A20DB2086140614D6
:10006000B2208610061006118612CA2086140614C5
:10007000CA2086100610CA2086140614CA208610CC
:1000800006100508A900A91C4A20291C5620A91DF4
:10009000622041289A20061028108614A8140615FC
:1000A000DB208616DB20861206110800051D592864
:1000B00086289A208610A810061428148616DB209D
:1000C000861208004A200A30A50086100614A520D2
:1000D000DB200519742806108614A520E3200519D5
:1000E0007428A50B65288D281430A50086100610ED
:1000F0009A20E320051D562806148614A520E32027
:10010000051D5628A50B76288D2808000430A70069
:10011000B220D320A70B882808000330A700A52011
:10012000D320A70B8F280330A700B220D320A70B22
:10013000952808004030A60086158030CF20861113
:100140006030CF20A60B9C2808002030A600861522
:10015000FF30CF20FF30CF208611FF30CF20A60BFD
:10016000A72808000830A6008615FF30CF20FF30F2
:10017000CF20FF30CF208611FF30CF20FF30CF209F
:10018000FF30CF20A60BB42808000E30A200A20B2F
:10019000C7280800FF30A200A20BCC280800A2004C
:1001A000A20BD02808008030A200A300A30BDE28F9
:1001B000A20BDE280800FF30A200A300A30BDE285C
:1001C000A20BDE280800FF30A200A300A30BE62844
:1001D000A20BE628FF30A200A300A30BED28A20B80
:0401E000ED280800FE
:00000001FF
