:020000040000FA
:100000000F0A120C2400600040050008670066001B
:10001000D00C0700DF0C0600660067000008060928
:100020000109DF09120C24004007170A27052007E1
:100030001A0A07052409130C24004007550A200753
:10004000640A00078B0A1A0A130C2400FF0C200014
:100050004606330A140C24004006540A4005130CCB
:10006000240040040008140C240040042606410A21
:10007000140C24002006540A2005130C240020042C
:100080000008140C2400200406064F0A140C240057
:100090000006540A0005130C240000040008140C88
:1000A0002400000420044004000852053204070420
:1000B000270547056705DF09CC09CC096704470414
:1000C000120ACC09CC09CC0987076F0AF809CC09B8
:1000D000F809CC09F809CC09F8090008790ADF0900
:1000E00032055204270407056705CC09CC096704CB
:1000F000120A130C2400030C20002705CC09070565
:10010000CC09F8092704CC090704CC09130C2400F6
:10011000E0027D0A120A52053204DF0907042705AE
:100120004705CC09CC096705CC09CC09670447040D
:10013000130C2400140C200027040705CC09DF0948
:100140008706B20A07042705CC09DF09130C24002F
:100150008706B20A2409130C24000007C90AE0022A
:100160009C0A790A130C2400140C200027040704AD
:10017000CC09DF09DF098707610ACC0907052705D4
:10018000CC098707610ACC09130C2400E002B60AE7
:10019000790ADF09120A0008100C2400FF0C200065
:1001A000110C2400FF0C2000110C2400E002D60AE0
:1001B000FF0C2000100C2400E002D40A0008A70461
:1001C000A604100C2400400C2000110C2400700C1C
:1001D0002000A705A605E002EB0A700C2000A7048A
:1001E000A604E002F10A100C2400E002E50A00086F
:1001F000A704A604100C2400400C2000110C2400BD
:10020000F00C2000A705A605E002040BF00C20006E
:10021000A704A604E0020A0B100C2400E002FE0A68
:020220000008D4
:00000001FF
